:020000040800F2
:1000000000400020611E0008F54B0008F74B000877
:10001000F94B0008FB4B0008FD4B000800000000F6
:10002000000000000000000000000000FF4B00087E
:100030000000000000000000014C0008034C000814
:10004000A91E00080B4C0008A91E0008A91E0008E4
:10005000A91E0008A91E0008A91E0008A91E000864
:10006000A91E0008A91E0008A91E0008A91E000854
:10007000A91E0008A91E0008A91E0008A91E000844
:10008000A91E0008A91E0008A91E0008A91E000834
:10009000A91E0008074C0008A91E0008A91E000898
:1000A000A91E0008A91E0008A91E0008A91E000814
:1000B000A91E0008A91E0008A91E0008A91E000804
:1000C000A91E0008A91E0008054C0008A91E00086A
:0400D000A91E00085D
:1000D80010B5054C237833B9044B13B10448AFF37A
:1000E80000800123237010BD480400200000000098
:1000F8004455000808B5034B1BB103490348AFF347
:10010800008008BD000000004C0400204455000891
:1001180081F0004102E000BF83F0004330B54FEAB0
:1001280041044FEA430594EA050F08BF90EA020F1D
:100138001FBF54EA000C55EA020C7FEA645C7FEAB0
:10014800655C00F0E2804FEA5454D4EB5555B8BFD3
:100158006D420CDD2C4480EA020281EA030382EA44
:10016800000083EA010180EA020281EA0303362DD6
:1001780088BF30BD11F0004F4FEA01314FF4801CA9
:100188004CEA113102D0404261EB410113F0004FBB
:100198004FEA03334CEA133302D0524263EB430372
:1001A80094EA050F00F0A780A4F10104D5F1200E10
:1001B8000DDB02FA0EFC22FA05F2801841F100016B
:1001C80003FA0EF2801843FA05F359410EE0A5F13F
:1001D80020050EF1200E012A03FA0EFC28BF4CF070
:1001E800020C43FA05F3C01851EBE37101F0004526
:1001F80007D54FF0000EDCF1000C7EEB00006EEB33
:100208000101B1F5801F1BD3B1F5001F0CD34908BC
:100218005FEA30004FEA3C0C04F101044FEA445213
:1002280012F5800F80F09A80BCF1004F08BF5FEA9A
:10023800500C50F1000041EB045141EA050130BD7A
:100248005FEA4C0C404141EB0101013C28BFB1F58C
:10025800801FE9D291F0000F04BF01460020B1FAD7
:1002680081F308BF2033A3F10B03B3F120020CDAAA
:100278000C3208DD02F1140CC2F10C0201FA0CF088
:1002880021FA02F10CE002F11402D8BFC2F1200CED
:1002980001FA02F120FA0CFCDCBF41EA0C019040A3
:1002A800E41AA2BF01EB0451294330BD6FEA0404EC
:1002B8001F3C1CDA0C340EDC04F11404C4F12002D7
:1002C80020FA04F001FA02F340EA030021FA04F3E9
:1002D80045EA030130BDC4F10C04C4F1200220FA40
:1002E80002F001FA04F340EA0300294630BD21FA7E
:1002F80004F0294630BD94F0000F83F4801306BF44
:1003080081F480110134013D4EE77FEA645C18BF37
:100318007FEA655C29D094EA050F08BF90EA020FCE
:1003280005D054EA000C04BF1946104630BD91EAC6
:10033800030F1EBF0021002030BD5FEA545C05D1C9
:100348004000494128BF41F0004130BD14F5800408
:100358003CBF01F5801130BD01F0004545F0FE417C
:1003680041F470014FF0000030BD7FEA645C1ABFB1
:10037800194610467FEA655C1CBF0B46024650EAE8
:10038800013406BF52EA033591EA030F41F4002114
:1003980030BD00BF90F0000F04BF0021704730B59A
:1003A8004FF4806404F132044FF000054FF000016F
:1003B80050E700BF90F0000F04BF0021704730B530
:1003C8004FF4806404F1320410F0004548BF404205
:1003D8004FF000013EE700BF42004FEAE2014FEA5A
:1003E80031014FEA02701FBF12F07F4393F07F4F35
:1003F80081F06051704732F07F4208BF704793F038
:100408007F4F04BF41F40021704730B54FF460744A
:1004180001F0004521F000411CE700BF50EA01024D
:1004280008BF704730B54FF000050AE050EA0102F6
:1004380008BF704730B511F0004502D5404261EB66
:1004480041014FF4806404F132045FEA915C3FF4A7
:10045800D8AE4FF003025FEADC0C18BF03325FEA44
:10046800DC0C18BF033202EBDC02C2F1200300FAF5
:1004780003FC20FA02F001FA03FE40EA0E0021FA1A
:1004880002F11444BDE600BF70B54FF0FF0C4CF408
:10049800E06C1CEA11541DBF1CEA135594EA0C0FBA
:1004A80095EA0C0F00F0DEF82C4481EA030621EAF5
:1004B8004C5123EA4C5350EA013518BF52EA033530
:1004C80041F4801143F4801338D0A0FB02CE4FF0E2
:1004D8000005E1FB02E506F00042E0FB03E54FF012
:1004E8000006E1FB03569CF0000F18BF4EF0010E0A
:1004F800A4F1FF04B6F5007F64F5407404D25FEA06
:100508004E0E6D4146EB060642EAC62141EA5551B8
:100518004FEAC52040EA5E504FEACE2EB4F1FD0CFA
:1005280088BFBCF5E06F1ED8BEF1004F08BF5FEA78
:10053800500E50F1000041EB045170BD06F000462A
:1005480046EA010140EA020081EA0301B4EB5C04D7
:10055800C2BFD4EB0C0541EA045170BD41F48011CF
:100568004FF0000E013C00F3AB8014F1360FDEBFF4
:10057800002001F0004170BDC4F10004203C35DAD0
:100588000C341BDC04F11404C4F1200500FA05F353
:1005980020FA04F001FA05F240EA020001F00042F4
:1005A80021F0004110EBD37021FA04F642EB06016A
:1005B8005EEA430E08BF20EAD37070BDC4F10C0494
:1005C800C4F1200500FA04F320FA05F001FA04F258
:1005D80040EA020001F0004110EBD37041F1000144
:1005E8005EEA430E08BF20EAD37070BDC4F120054F
:1005F80000FA05F24EEA020E20FA04F301FA05F2B7
:1006080043EA020321FA04F001F0004121FA04F25E
:1006180020EA020000EBD3705EEA430E08BF20EA2E
:10062800D37070BD94F0000F0FD101F00046400068
:1006380041EB010111F4801F08BF013CF7D041EAEA
:10064800060195F0000F18BF704703F000465200EE
:1006580043EB030313F4801F08BF013DF7D043EABF
:100668000603704794EA0C0F0CEA135518BF95EA75
:100678000C0F0CD050EA410618BF52EA4306D1D1FC
:1006880081EA030101F000414FF0000070BD50EA1B
:10069800410606BF1046194652EA430619D094EAA5
:1006A8000C0F02D150EA013613D195EA0C0F05D18F
:1006B80052EA03361CBF104619460AD181EA0301E3
:1006C80001F0004141F0FE4141F470014FF000009B
:1006D80070BD41F0FE4141F4780170BD70B54FF036
:1006E800FF0C4CF4E06C1CEA11541DBF1CEA1355B6
:1006F80094EA0C0F95EA0C0F00F0A7F8A4EB050498
:1007080081EA030E52EA03354FEA013100F088808E
:100718004FEA03334FF0805545EA131343EA126357
:100728004FEA022245EA111545EA10654FEA00260C
:100738000EF000419D4208BF964244F1FD0404F5C5
:10074800407402D25B084FEA3202B61A65EB030521
:100758005B084FEA32024FF480104FF4002CB6EBDE
:10076800020E75EB030E22BFB61A754640EA0C005E
:100778005B084FEA3202B6EB020E75EB030E22BF9E
:10078800B61A754640EA5C005B084FEA3202B6EBDF
:10079800020E75EB030E22BFB61A754640EA9C009E
:1007A8005B084FEA3202B6EB020E75EB030E22BF6E
:1007B800B61A754640EADC0055EA060E18D04FEA2C
:1007C800051545EA16754FEA06164FEAC30343EACC
:1007D80052734FEAC2025FEA1C1CC0D111F4801F99
:1007E8000BD141EA00014FF000004FF0004CB6E792
:1007F80011F4801F04BF01430020B4F1FD0C88BF31
:10080800BCF5E06F3FF6AFAEB5EB030C04BFB6EB3B
:10081800020C5FEA500C50F1000041EB045170BD2E
:100828000EF0004E4EEA113114EB5C04C2BFD4EB5B
:100838000C0541EA045170BD41F480114FF0000EDF
:10084800013C90E645EA060E8DE60CEA135594EA5B
:100858000C0F08BF95EA0C0F3FF43BAF94EA0C0F5E
:100868000AD150EA01347FF434AF95EA0C0F7FF4D3
:1008780025AF104619462CE795EA0C0F06D152EA27
:1008880003353FF4FDAE1046194622E750EA41060B
:1008980018BF52EA43067FF4C5AE50EA41047FF41C
:1008A8000DAF52EA43057FF4EBAE12E74FF0FF3C81
:1008B80006E000BF4FF0010C02E000BF4FF0010C52
:1008C8004DF804CD4FEA410C7FEA6C5C4FEA430CCB
:1008D80018BF7FEA6C5C1BD001B050EA410C0CBF1A
:1008E80052EA430C91EA030F02BF90EA020F00207C
:1008F800704710F1000F91EA030F58BF994208BFE3
:1009080090422CBFD8176FEAE37040F0010070479F
:100918004FEA410C7FEA6C5C02D150EA013C07D1F6
:100928004FEA430C7FEA6C5CD6D152EA033CD3D041
:100938005DF8040B704700BF8446104662468C463B
:100948001946634600E000BF01B5FFF7B7FF00286E
:1009580048BF10F1000F01BD4DF808EDFFF7F4FF97
:100968000CBF012000205DF808FB00BF4DF808ED22
:10097800FFF7EAFF34BF012000205DF808FB00BF45
:100988004DF808EDFFF7E0FF94BF012000205DF867
:1009980008FB00BF4DF808EDFFF7CEFF94BF01201C
:1009A80000205DF808FB00BF4DF808EDFFF7C4FF15
:1009B80034BF012000205DF808FB00BF4FEA410268
:1009C80012F5001215D211D56FF47873B3EB625299
:1009D80012D94FEAC12343F0004343EA505311F0C0
:1009E800004F23FA02F018BF404270474FF0000052
:1009F800704750EA013005D111F0004008BF6FF090
:100A0800004070474FF00000704700BF4A0011D205
:100A180012F5001211D20DD56FF47873B3EB625250
:100A28000ED44FEAC12343F0004343EA505323FA5C
:100A380002F070474FF00000704750EA013002D1D1
:100A48004FF0FF3070474FF00000704753B94AB974
:100A5800002908BF00281CBF4FF0FF314FF0FF30BE
:100A680000F08AB9ADF1080C6DE904CE00F024F865
:100A7800DDF804E0DDE9022304B07047D0B50C4B83
:100A8800002206460F46FFF7FFFCFFF7BFFF0446AC
:100A9800FFF780FC074B0022FFF7F6FC02460B46E7
:100AA80030463946FFF738FBFFF7B0FF2146D0BD87
:100AB8000000F03D0000F0412DE9F047089E0D468A
:100AC80004468E46002B40F082808A42174646D95B
:100AD800B2FA82F24AB1C2F1200105FA02F320FA11
:100AE80001F1974041EA030E94404FEA1748230C5E
:100AF800BEFBF8FCB9B208FB1CEE43EA0E430CFB44
:100B080001F098420AD9FB180CF1FF3580F01681E4
:100B1800984240F21381ACF1020C3B441B1AA4B278
:100B2800B3FBF8F008FB103344EA034400FB01F17F
:100B3800A14209D93C1900F1FF3380F00181A1429B
:100B480040F2FE8002383C44641A40EA0C4000211E
:100B58001EB1D4400023C6E90043BDE8F08702B9BE
:100B6800FFDEB2FA82F2002A4FD1CB1B4FEA174EB2
:100B78001FFA87F80121B3FBFEFC250C0EFB1C3382
:100B880045EA034508FB0CF3AB4207D97D190CF184
:100B9800FF3002D2AB4200F2E7808446ED1AA3B2DE
:100BA800B5FBFEF00EFB105543EA054408FB00F8C0
:100BB800A04507D93C1900F1FF3302D2A04500F245
:100BC800D7801846A4EB080440EA0C40C0E78B42E3
:100BD80008D9002E00F0AF800021C6E900050846BC
:100BE800BDE8F087B3FA83F100294BD1AB4202D3B9
:100BF800824200F2B780841A65EB030301209E4607
:100C0800002EAAD0C6E9004EA7E7C2F1200C01FACF
:100C180002F3974020FA0CF04FEA174E21FA0CFC29
:100C28001843BCFBFEF1050C0EFB11CC1FFA87F82C
:100C380045EA0C4501FB08F3AB4204FA02F409D972
:100C48007D1901F1FF3C80F08B80AB4240F2888037
:100C580002393D44EB1A85B2B3FBFEF00EFB1033AC
:100C680045EA034500FB08F3AB4207D97D1900F1BB
:100C7800FF3C71D2AB426FD902383D44EB1A40EACF
:100C8800014178E7C1F1200C8B4022FA0CF71F4391
:100C980020FA0CF405FA01F34FEA174E25FA0CF581
:100CA8001C43230CB5FBFEF91FFA87F80EFB1955F8
:100CB80043EA054509FB08FAAA4502FA01F200FAD7
:100CC80001F308D97D1909F1FF3047D2AA4545D962
:100CD800A9F102093D44A5EB0A05A4B2B5FBFEF053
:100CE8000EFB105544EA054400FB08F8A04507D957
:100CF8003C1900F1FF352DD2A0452BD902383C44D0
:100D080040EA0940A4EB0804A0FB02894C45C6460A
:100D18004D4619D316D05EB1B3EB0E0264EB050451
:100D280004FA0CFCCA404CEA0202CC40C6E9002492
:100D38000021BDE8F087314630460EE7AC46EDE6C7
:100D4800184601E74345E6D2B8EB020E69EB070502
:100D58000138E0E72846D3E760468FE78146BAE7DF
:100D6800614677E708464BE7ACF1020C3D4415E7CE
:100D780002383C4426E700BF704700BF844641EA7A
:100D8800000313F003036DD1403A41D351F8043BFB
:100D980040F8043B51F8043B40F8043B51F8043B4D
:100DA80040F8043B51F8043B40F8043B51F8043B3D
:100DB80040F8043B51F8043B40F8043B51F8043B2D
:100DC80040F8043B51F8043B40F8043B51F8043B1D
:100DD80040F8043B51F8043B40F8043B51F8043B0D
:100DE80040F8043B51F8043B40F8043B51F8043BFD
:100DF80040F8043B51F8043B40F8043B51F8043BED
:100E080040F8043B51F8043B40F8043B403ABDD25B
:100E1800303211D351F8043B40F8043B51F8043BFD
:100E280040F8043B51F8043B40F8043B51F8043BBC
:100E380040F8043B103AEDD20C3205D351F8043B8C
:100E480040F8043B043AF9D2043208D0D2071CBF58
:100E580011F8013B00F8013B01D30B880380604681
:100E6800704700BF082A13D38B078DD010F00303F7
:100E78008AD0C3F10403D21ADB071CBF11F8013B67
:100E880000F8013B80D331F8023B20F8023B7BE7B6
:100E9800043AD9D3013A11F8013B00F8013BF9D2E1
:100EA8000B7803704B7843708B788370604670477B
:100EB80070472DE9F74FDDF83C9019F0030FDDE995
:100EC8000D4607468B46154628D00C9901EB0408B9
:100ED8001444A24226D119F0020F0AD0A4EB050847
:100EE800C1464E4505EB090226D83544464528BF7C
:100EF8002C46204603B0BDE8F08F594620200193C8
:100F0800B847019B08F10108B0450AEB0802F4D381
:100F1800321BB44288BF00222A44D6E7A046A2EB7F
:100F2800040AF1E702F1010A18F8010D0193594684
:100F3800B847019B5246CCE759462020019309F156
:100F48000109B847019BCCE72DE9F047DDE90D76AB
:100F580016F0020FDDE90854DDE90BC89DF828E01A
:100F68001FD106F001094FB1B9F1000F06D0BEF14B
:100F7800000F02D116F00C0F00D0013F4FF0300ADD
:100F880002E005F804A00134444501D2202CF8D130
:100F98004FF0300AB9F1000F03D0BC4201D21F2C28
:100FA80034D916F0100F1FD016F4806F33D194B3D4
:100FB800444501D0BC422ED1B4F101082AD0BCF17D
:100FC800100F33D1023C16F0200F31D11F2C15D849
:100FD8004FF0780C05F804C001341F2C0ED84FF0E0
:100FE800300C05F804C001341F2C07D8BEF1000FDF
:100FF80023D04FF02D0C05F804C00134CDE90A7652
:10100800CDE90854BDE8F047FFF753BF05F804A041
:101018000134BFE74446BCF1100FD4D0BCF1020F35
:10102800DBD11F2CEAD84FF0620CD3E74446F5E732
:101038001F2CE3D84FF0580CCCE716F0040F02D061
:101048004FF02B0CD7E716F0080FD7D04FF0200C35
:10105800D1E72DE9F04391B0189D1A9E1D9F0DB957
:1010680027F010077C0500D50DB317F0200FAC460C
:101078000DF1200E4FF0000514BF4FF037084FF068
:101088005708BCFBF6F906FB19C95FFA89F4B9F1F0
:10109800090F94BF30344444E4B2B4450EF8014B10
:1010A800BCFBF6F405F1010501D3202D10D11C9CE1
:1010B80005941B9C0697CDE903649DF86440CDE92F
:1010C800015408AC0094FFF73FFF11B0BDE8F0836E
:1010D800A446D6E72DE9F04F93B0DDE91CAB249D7B
:1010E80099465AEA0B0308BF25F010056B0506461A
:1010F8000F46904602D55AEA0B033CD00AAB15F0CE
:10110800200F089314BF3723572300240993DDE9E0
:10111800202350465946FFF799FCD2B2092A8ABFC4
:10112800099B3032D218089BD2B203F8012B0893DE
:10113800DDE920239B4508BF924504F1010401D352
:10114800202C15D1239B0593229B0493209B03936A
:101158009DF878300695CDE901430AAB00934246E5
:101168004B4639463046FFF7EFFE13B0BDE8F08F27
:1011780082468B46CBE70024E4E70000014610B125
:10118800014801F003BD7047003000400000000036
:101198002DE9F04F2DED068B91B0DDE9206708EEC3
:1011A800100A08EE901A92469B4632463B46304655
:1011B8003946229DFFF7D0FB80B9249B0393239BDC
:1011C800029303230193B64B009318EE901A18EE7E
:1011D800100A5B465246FFF76CFE47E04FF0FF32BD
:1011E8006FF4801330463946FFF7C0FB38B1249BB3
:1011F8000393239B029304230193AA4BE4E7AA4B8E
:101208004FF0FF3230463946FFF7CEFB78B1249BCA
:10121800A64A2499039103F00403002B2399A44BB5
:101228000EBF032213460422CDE90121CCE798A37F
:10123800D3E9002330463946FFF7B6FB38B996A301
:10124800D3E9002330463946FFF790FB98B1249B39
:101258000493239BCDE90067CDE9025318EE901A59
:1012680018EE100A5B46524600F02AF911B0BDECA0
:10127800068BBDE8F08F0022002330463946FFF781
:1012880075FB002800F082803B4632460020002192
:10129800FEF742FF012306460F460793249B13F4EB
:1012A800806F08BF062508ABA5F12002A9463021AA
:1012B800B9F1090FA5EB090406D909F1FF394A4527
:1012C80003F8011BF4D1202439463046FFF776FB9A
:1012D800784B03EBC90393ED007B0546B0EE479AC4
:1012E800F0EE679AFFF766F802460B463046394635
:1012F800FEF712FF53EC192BFFF7C6F802460B4610
:1013080043EC1A2BFFF782FB8046FFF743F80246AF
:101318000B4651EC1A0BFEF7FFFE02460B4643EC58
:101328001A2B654B0022FFF73FFB88B308F1010831
:101338004046FFF72FF802460B4651EC190BFFF712
:101348001FFB10B101354FF00008B9F1000F4ED165
:101358002846FFF72FF802460B4630463946FEF777
:10136800DBFE554B002280468946FFF7FFFA30B175
:10137800514B002240464946FFF716FB10B1E807DB
:1013880000D5013508AB23440A2258E0079085E7C9
:10139800494B51EC1A0B0022FFF7E8FA0028D4D188
:1013A800B8F1000F02D018F0010FCED008F10108F3
:1013B800CBE7B8FBF1F001FB10823032B8F1090F2E
:1013C80003F8012B09F1FF3904F1010427D8A144DE
:1013D80008AA3021202C0FD04C4504F1010320D15C
:1013E80010AA14442E2204F8202C1C46CAE708AB85
:1013F80023440A21202CDCD1249B03F00303012B76
:1014080008AB2CD1239A52B3079A1AB9249A12F02E
:101418000C0F02D0239A013A2392302214E080461E
:10142800E8E7A1541C46D5E795FBF2F102FB1155FC
:10143800303503F8015B01340D460029DCD0202C3F
:10144800F2D1D9E71A5501342399A14207D9202CA2
:10145800F8D1249A0392239ACDE90142B4E6202CCC
:10146800F7D0079A32B110AA22442D2102F8201C85
:101478000134EEE7249A510703D510AA22442B2100
:10148800F4E7249A1207E4D510AA22442021EDE7B4
:101498000000000065CDCD410000000065CDCDC144
:1014A8007E57000882570008FFFFEF7F7957000832
:1014B80075570008605500080000E03F0000000074
:1014C8002DE9F04F2DED088B8DB01D46DDE920B3D9
:1014D8009DED1E7B0793229B0A9208EE900AB0EEC0
:1014E800479AF0EE679A0C46069351EC170B53ECAB
:1014F800172BFFF731FA80B1CF4B51EC190B4FF096
:10150800FF32FFF751FA40B951EC190B4FF0FF3297
:101518006FF48013FFF72AFA90B1069B2293079B7A
:101528000A9A18EE900ACDE920B321462B468DED94
:101538001E9B0DB0BDEC088BBDE8F04FFFF728BE31
:1015480051EC190B00220023FFF710FA002800F0D5
:101558004E8119EE903A19EE108A03F10049069B64
:101568009FEDB67A9FEDB68A13F480630B93C9F3A7
:101578000A53A3F2FF3307EE903AC9F31302F8EEC9
:10158800E77A42F07F51AF4B4FF00002404641F4FA
:10159800401108BF4FF0060BA7EE878AFEF7BCFD87
:1015A8009FA3D3E90023FEF76FFF064618EE100A43
:1015B8000F46FEF711FF02460B4630463946FEF746
:1015C800ADFDFFF7FBF907EE900AB8EEE77ADFED1D
:1015D8009E7AB6EE008AA7EE278A8246DFED9B7ACE
:1015E800BDEEC88AF8EEC86A67EEE67ADFED986A5B
:1015F800E7EE267A17EE900AFEF7EEFE02460B4655
:1016080006460F46FEF740FF324641EC1A0B3B46B2
:1016180030463946FEF782FD8E4B41EC1B0B00220B
:1016280051EC1A0BFFF75AF88B4B0022FEF776FDA8
:1016380002460B4651EC1A0BFFF750F8874B002275
:10164800FEF76CFD02460B4651EC1A0BFFF746F805
:10165800324641EC1A0B3B4600204FF08041FEF722
:101668005BFD02460B4651EC1A0BFEF757FD02468E
:101678000B4651EC1B0BFFF731F8794B0022FEF7B4
:101688004DFD18EE103A03F2FF3633050022FEF73F
:10169800FBFE06460F4602460B4640464946FFF704
:1016A80065F9002840F0A680CDE908670AF16303D0
:1016B800C72B069B34BF04260526190523D55AA334
:1016C800D3E9002340464946FFF764F9002800F0B3
:1016D8009C8057A3D3E9002340464946FFF746F9C3
:1016E800002800F09280069BDA45B8BFABEB0A0BE6
:1016F80043F480634FF00006B4BF0BF1FF3B4FF09B
:10170800000B0693B246079BB34288BF9F1B069BFC
:1017180098BF002713F002030B9302D0002E18BFC6
:101728000027BAF1000F07D040464946DDE90823F3
:10173800FEF7D4FF8046894651EC190B002200239E
:10174800FFF714F910B109F100439946069B0A9A6C
:10175800CDF808B023F40063CDE90373CDE900891F
:1017680018EE900A2B462146FFF712FD0746002E79
:1017780037D0069B13F0200F00F10109024618EE3E
:10178800907A14BF452065202B462146B84705238B
:10179800059300220A238AEAEA70CDE90232A0EB17
:1017A800EA704FEADA73013E019300902B4618EE77
:1017B800900A04964A462146FFF74BFC0B9B0746C6
:1017C8007BB10A9BA0EB0309C8460A9B03EB0802FE
:1017D800079B434546D807990A9B0B44494528BFB0
:1017E8001F4638460DB0BDEC088BBDE8F08F59ECAC
:1017F800198BB4E6184B002230463946FEF76EFFC7
:101808000AF1FF3ACDE9080150E7BBF1000F3FF4B8
:101818007AAF0B9B002B3FF476AF0BF1FF3B72E7DF
:1018280000000060A787D23F000000E0E2361A3FC0
:101838000000000080842E41FFFFEF7F9B209A3E2E
:101848004451343E0000F83F789A54401872313FB2
:101858008E5D134000002C4000002440000018401A
:101868000000F03F18EE906A2B4621462020B04732
:1018780008F10108A9E700BF2DE9F04F91B0002950
:101888000A93C74B1A9E904614BF81469946002575
:101898000A9B187858B945452CBF08F1FF322A46EB
:1018A80043460020C847284611B0BDE8F08F0A9B80
:1018B800252803F101030A9306D02A466C1C4346E7
:1018C8000B91C8472546B7E1002206E02D2B14D01E
:1018D800302B0CD142F001020A900A9810F8013B13
:1018E8002B2B0DD0F2D8202B0DD0232B0ED0A3F10B
:1018F8003004092C28D8002710E042F00202EBE758
:1019080042F00402E8E742F00802E5E742F010027C
:10191800E2E70A2404FB0737303F0A900A9810F8D8
:10192800013BA3F13004092CF3D90A9B1B782E2B19
:1019380067D10A9B581C5B78A3F13004092C42F448
:10194800806255D8002411E02A2B08D156F8047B70
:101958000A90002FBCBF42F002027F42E5E7002751
:10196800E3E70A2000FB0434303C604684461CF858
:10197800013BA3F1300EBEF1090FF2D9034613F86B
:1019880001CBBCF16C0F48D03ED8BCF1680F4DD0EC
:10199800BCF16A0F55D0034613F8010B0A93782857
:1019A8008BD8572850D8452805D086D9462800F026
:1019B8003081472881D100F0DF03472B04BF00F0B6
:1019C800FD0042F40062452808BF42F02002CDE93C
:1019D8000372073626F007060294F6E80223484603
:1019E800CDE9002343462A460B91FFF769FD22E122
:1019F8002A2B07D156F8044B0A9824EAE4740230DB
:101A0800BCE70A980024B9E7BCF1740F02D0BCF116
:101A18007A0FC0D142F48072BEE790F801C0BCF1E1
:101A28006C0FF7D142F44072831CB5E790F801C0FF
:101A3800BCF1680F02D042F08002ADE742F0C0026C
:101A4800F2E742F40072A7E7A0F15803202B3FF613
:101A580034AF0FF2080C5CF823F000BFE91A000855
:101A6800C3180008C3180008C3180008C3180008E2
:101A7800C3180008C3180008C3180008C3180008D2
:101A8800C3180008E91A0008451C0008E91A0008EC
:101A9800BF1900081F1C0008BF190008C318000858
:101AA800E91A0008C3180008C3180008C31800087A
:101AB800C3180008C3180008E91A0008951D000893
:101AC800C3180008C3180008C11C0008C318000880
:101AD800E91A0008C3180008C3180008E91A000822
:101AE800782800F06981582800F064816F2800F098
:101AF8006581622800F06481692822F010024FF0A5
:101B08000A0303D0642801D022F00C0212F4806F7B
:101B180018BF22F00102692802F4007C01D0642871
:101B280044D1BCF1000F23D0073626F007008246C7
:101B380040685AF8086B049300230593C30F029377
:101B4800002E034673F10000CDE907720694324671
:101B580002DA724263EB4303CDE900234846434669
:101B68002A460B91FFF7B6FA0B99054656468FE6BB
:101B7800D00506F1040A0CD53068CDE90472CDE928
:101B8800023400284FEAD0730193B8BF4042009056
:101B980028E012F0400F306804D0C0B2EDE700BF73
:101BA800B90E0008160648BF00B2E6E7BCF1000F00
:101BB8000CD0CDE907720022CDE90432073626F0B1
:101BC800070A06940292FAE80223C5E7D00506F14F
:101BD800040A0ED5CDE90472CDE90234CDF804C06B
:101BE8003368009343462A4648460B91FFF731FA7B
:101BF800BAE712F0400F306807D0C0B2CDE902341E
:101C08000023CDE904720193C1E7160648BF80B2EC
:101C1800F4E742F02002CDE90372073626F0070602
:101C28000294F6E802234846CDE9002343462A46B3
:101C38000B91FFF7ADFA05460B9929E612F002045D
:101C480026D04FF0010A56F8040B0B9143462A465A
:101C5800C0B2C84705F1010B0B995CB354465A460C
:101C680020E00B9143462020C8470B990AEB050258
:101C78000AF1010A5745F4D8002F07F1FF3308BFCE
:101C8800002307F1010A1D4408BF4FF0020ADAE7F2
:101C9800A246EBE70B9143462020551CC8470B99F9
:101CA80001342A46BC42F5D3A7EB0A03574538BF8F
:101CB80000239B445D46EBE5334653F8046B0B93D6
:101CC800404B002E08BF1E46002C14BF23464FF081
:101CD800FF333344B3469BF8000008B19B4511D14C
:101CE80012F48063ABEB060B0C9302D0A34528BF1C
:101CF800A34612F002030D931CD1ABEB05032A4651
:101D08000E930AE00BF1010BE5E70F914346202003
:101D180002F1010AC8470F9952460E9B1344BB4271
:101D2800F3D3A7EB0B035F4538BF00230BF1010B7F
:101D38001D449B44A5EB060A05E01C460E9143464C
:101D48002A46C8470E990AEB060516F8010B28B172
:101D58000C9B002BF2D0631E002CEED10D9B9BB187
:101D68002A46ABEB050406E00C9143462020561C9E
:101D7800C8470C9932461319BB42F5D3A7EB0B039E
:101D88005F4538BF00231D440B9E81E542F02102C8
:101D98000823CDE90343059200231022CDE901323F
:101DA80056F8043B00932A46434648460B91FFF7F2
:101DB80050F940E742F020021023A5E60823A3E6E5
:101DC8000223A1E6875700080FB41FB506AA02A987
:101DD80052F8043B0392009204484FF0FF32FFF799
:101DE8004BFD05B05DF804EB04B0704785110008A1
:101DF800064B0748E02283F82220C0210023C2189E
:101E08000133252B82F80013F9D1704700ED00E06B
:101E180000E100E00E4A08B5D2F8883043F47003B8
:101E2800C2F888304FF08042D36843F08003D36013
:101E3800084B5A6922F4702242F480325A619A6837
:101E48009207FCD5FFF7D4FFBDE8084000F02AB898
:101E580000ED00E000000240002103E00B4B5B585E
:101E6800435004310A480B4B42189A42F6D30A4AA7
:101E780002E0002342F8043B084B9A42F9D3FFF7EB
:101E8800C9FF03F0A3F802F0BAFCFEE72C5A0008D9
:101E9800000000204404002048040020101A0020FC
:101EA800FEE7000008B5012000F0F4F90B4B98425A
:101EB80013D90B4A0133B0FBF3F31370094A4FF4FB
:101EC8007A73B0FBF3F0084B0138E021586082F8D0
:101ED800231000229A6007221A6008BD3F420F00B3
:101EE8006404002000ED00E010E000E030B5094B8C
:101EF80009491B784D6863B18A6858430023144622
:101F08008A689442FBD098BF5B1923449B1A83428A
:101F1800F5D330BD6404002010E000E04FF47A737C
:101F28005843FFF7E3BF0000012310B58B40062A92
:101F380000F28580DFE802F0040F1C2938496600AA
:101F480002681A43026082681A438260C26822EA01
:101F58000303C3600BE002681A43026082681A43F5
:101F68008260C2681A43C26002691343036110BDEC
:101F780002681A43026082681A438260C2681A4380
:101F8800C260026922EA0303F0E7026822EA030258
:101F98000260826822EA03028260426822EA03023F
:101FA8004260826913430EE0026822EA030202607B
:101FB800826822EA03028260426822EA03024260DF
:101FC800826922EA03038361D1E7204CA0426FEAC9
:101FD80003020ED107290CD98169114081618168FA
:101FE8001140816001680B43036003691A40026174
:101FF800BDE701681140016081680A40826042685B
:102008001A43CDE7114CA0426FEA03020AD107290F
:1020180008D9836913408361836813408360036828
:102028001340E1E701681140016081681140816057
:1020380041680B43436083691A40826197E70268ED
:102048001A430260826822EA03027EE700FC01402C
:10205800072910B510D90D4B083998420BBF01EB71
:102068004101890007230F238B408A40C16B21EA75
:1020780003031A43C26310BD836B89000F248C408D
:1020880023EA04038A401A438263F4E700FC014010
:102098000D4B984207B515D003F58053984214BFED
:1020A80016201420C0B20021019000F05FF90198B9
:1020B800012100F033FC0198002103B05DF804EB26
:1020C80000F02CBC1520EDE7004001400023038000
:1020D8004360704738B504460D464FF47A7362681A
:1020E800120410D5013BFAD2236803F480632360FD
:1020F800236843F48063236063686360236823F480
:102108008063236001E0002BEED16B782BB323684A
:1021180043F020032360144B9C420CBF0220032091
:1021280000F0B8F8114BB0FBF3F3083B5B08013B38
:102138000F4AB0FBF2F05A02083842EA5000206118
:102148000322B3FBF2F363612B7853B923686A68FF
:1021580023F440731343236038BD236823F020031E
:10216800D8E72B79A360F7E700700040801A0600D3
:10217800A0860100036839B143F480430360036813
:1021880043F400530360704723F4804303600368FB
:1021980023F40053F6E7036823F4805303600368CD
:1021A80042EA41029B06D2B207D5036842F41062A4
:1021B80043F01003036002627047C260036823F0B3
:1021C80002030360036843F0090303607047036870
:1021D80023F001030360036843F4805303607047EE
:1021E80003689B0603D541F4006101627047C16032
:1021F800036823F001030360036843F008030360E6
:10220800704703689B064CBFC06AC068C0B270477D
:1022180003689A0607D500290CBF4FF440634FF4B2
:10222800006303627047036859B943F0040303600D
:10223800036823F001030360036843F008030360A5
:10224800704723F00403F2E7012303FA01F1416028
:102258007047000039B9084B5B6C13F0F00F0CBFE6
:102268000120002070474268012303FA01F111425E
:1022780014BF18460020704700700040044A1368D5
:1022880018B143F080031360704723F08003FAE726
:102298000C8000404FF0804301461A6802F4E04287
:1022A800B2F5A04F20D015D8B2F5805F1ED0B2F598
:1022B800005F1B4808BF4FF4004002291BD00329C8
:1022C80023D0012905D14FF080431B68C3F30323B2
:1022D800D8407047B2F5C04F0BD0114B1148B2F53A
:1022E800E04F18BF1846E8E70F48E6E74FF4FA4012
:1022F800E3E70E48E1E74FF080421368C3F3032396
:10230800D8401368C3F34213E2E74FF080421368E2
:10231800C3F30323D8401368C3F3C233D8E700BF1D
:1023280000366E01006CDC020048E80100093D003F
:102338004FF08043986800F4C03070474FF08043F6
:10234800986800F4C04070474FF08043986800F4E4
:10235800C05070474FF08043986800F4C0607047E1
:102368004FF08043586800F00200704741284AD86F
:10237800DFE810F011020702FD01E401D201B90102
:10238800710167015D01530149013F0135010D01EB
:102398000301D600EA00E000CC004900C200B80002
:1023A800AE00A30099008F0085006B006100570004
:1023B8004D004200170121012B0149004900490045
:1023C80049004900490049004900490049004900BD
:1023D800490049002E0225021B02380295014900D6
:1023E800490049004900490049004900490049009D
:1023F8004900490042024C024FF08043DA6819B1A3
:1024080042F48012DA60704722F48012FAE74FF043
:102418008043DA6811B142F40022F3E722F4002283
:10242800F0E74FF08043DA6811B142F48022E9E71F
:1024380022F48022E6E74FF08043DA6811B142F4D3
:102448000032DFE722F40032DCE74FF08043DA683D
:1024580079B142F48032DA604FF080439A6A02F030
:102468003F023F2AFAD15A6931B142F004025A6157
:10247800704722F48032EEE722F00402F7E74FF0CB
:102488008043DA6811B142F40042BBE722F400420B
:10249800B8E74FF08043DA6811B142F48042B1E7FF
:1024A80022F48042AEE74FF08043DA6811B142F47B
:1024B8000052A7E722F40052A4E74FF080431A69BC
:1024C80019B142F020021A61704722F02002FAE79F
:1024D8004FF08043DA6811B142F4805292E722F457
:1024E80080528FE74FF08043DA6811B142F40062FE
:1024F80088E722F4006285E74FF08043DA6811B17B
:1025080042F480627EE722F480627BE74FF08043EA
:10251800DA6811B142F4807274E722F4807271E7CC
:102528004FF08043DA6811B142F020026AE722F0E6
:10253800200267E74FF08043DA6811B142F0800269
:1025480060E722F080025DE74FF08043DA6871B1FE
:1025580042F04002DA604FF080439A6A02F03F028C
:102568003F2AFAD15A6929B142F008027FE722F0DE
:102578004002EFE722F0080279E74FF08043DA687B
:1025880011B142F010023DE722F010023AE74FF095
:102598008043DA6811B142F0007233E722F000722A
:1025A80030E74FF08043DA6811B142F0807229E7D2
:1025B80022F0807226E74FF08043DA6811B142F4C6
:1025C80000021FE722F400021CE74FF08043DA689C
:1025D80011B142F4800215E722F4800212E74FF0AD
:1025E8008043DA6811B142F008020BE722F00802D2
:1025F80008E74FF08043DA6811B142F0040201E7BE
:1026080022F00402FEE64FF08043DA6811B142F08E
:102618000202F7E622F00202F4E64FF08043DA689D
:1026280011B142F00102EDE622F00102EAE64FF0B4
:102638008043DA6811B142F00062E3E622F00062FA
:10264800E0E64FF08043DA6811B142F08062D9E6E3
:1026580022F08062D6E64FF080431A6979B142F4DD
:1026680000721A619A6A02F03F023F2AFAD15A6947
:1026780042F010025A611A6942F0100223E722F070
:1026880010021A619A6A02F03F023F2AFAD15A6987
:1026980022F010025A611A6922F4007213E74FF00F
:1026A80080431A6979B142F480521A619A6A02F039
:1026B8003F023F2AFAD15A6942F020025A611A6948
:1026C80042F40062FFE622F400621A619A6A02F09C
:1026D8003F023F2AFAD15A6922F020025A611A6948
:1026E80022F48052EFE64FF080431A6971B142F04C
:1026F80008021A614FF080439A6A02F03F023F2AAB
:10270800FAD15A6929B142F00102B0E622F0080272
:10271800EFE722F00102AAE64FF080431A6931B1CF
:1027280042F004021A611A6942F04002CBE622F034
:1027380004021A611A6922F04002C4E64FF080438D
:102748001A6971B142F002021A614FF080439A6A25
:1027580002F03F023F2AFAD15A6929B142F0020237
:1027680085E622F00202EFE722F002027FE64FF050
:102778008043DA6811B142F0805243E622F0805279
:1027880040E64FF080431A6911B142F001029AE61F
:1027980022F0010297E64FF080431A6911B142F026
:1027A800800290E622F080028DE64FF080431A699D
:1027B80011B142F4807286E622F4807283E64FF00B
:1027C8008043DA6809B11A431CE622F0804219E610
:1027D8004FF08043DA6811B142F0005212E622F05D
:1027E80000520FE64FF080431A6911B142F480623B
:1027F80069E622F4806266E64FF08043DA6811B138
:1028080042F40012FEE522F40012FBE54FF080438B
:10281800DA6811B142F00042F4E522F00042F1E535
:1028280010B50C4605280ED8DFE800F003151F2860
:10283800335E364A3649136834B123F020031360F7
:102848008B685B07FCD510BD43F0200313608B68D1
:102858005C07FCD4F7E72F4A136819B123F4004347
:102868001360F0E743F40043FAE72A4A136811B10A
:1028780023F4C043F4E743F4C043F1E7234A136861
:1028880023F0180311B143F00803E9E743F01003FC
:10289800E6E701210E20FFF769FD1F4BD3F804215D
:1028A800CCB190060BD4D3F8042142F02002C3F82F
:1028B8000421D3F8042122F08002C3F80421164B26
:1028C800D3F8042142F00402C3F80421D3F8082104
:1028D8009107FBD5B7E722F00402C3F80421D3F827
:1028E80008219207FBD4AEE7084A0949136834B1B6
:1028F80023F0400313608B68002BFCDAA3E743F056
:10290800400313608B68002BFCDB9CE718800040B9
:102918000082004008800040009000403F281ED8F8
:102928002F280DD90123303803FA00F04FF08043E7
:10293800DA6911B91043D861704722EA0000FAE752
:10294800A0F12003DBB2022B98BF0D20012303FA6C
:1029580000F04FF080439A6911B9104398617047AD
:1029680022EA0000FAE708B500210320FFF7FEFC81
:1029780001210320FFF7D2FFBDE808400021032012
:10298800FFF7CCBF034940F6FF53CA6A33EA020295
:10299800FBD1704700E0004008B5FFF7F3FF054B97
:1029A8001A6818B142F080521A6008BD22F08052AD
:1029B800FAE700BF00E0004008B5FFF7E3FF054B6A
:1029C8001A6818B142F080721A6008BD22F080724D
:1029D800FAE700BF00E00040012808B50AD8FFF771
:1029E800D1FF054B1A6801280CBF42F0007222F093
:1029F80000721A6008BD00BF00E00040F8B5054647
:102A080000285FD031480346476BB9B25E6C5A6CF8
:102A1800B242FBD19C6C9A6CA242FBD15A6B92B227
:102A28009142F1D10029EFD0FFF79AFCBFB207EE2F
:102A3800907AB8EEE77AF6EE007A002843D1DFED17
:102A4800246AC6F3021306F00F0203EB830302EBBA
:102A58004303EB71C6F3C223C6F3C31203EB83032C
:102A680002EB4303AB71C6F3814303EB8303C6F365
:102A7800833606EB4306C4F3011304F00F0203EB9D
:102A8800830302EB43032B71C4F380239A0013449E
:102A9800C4F3831202EB4303E7EE267AEB70C4F328
:102AA800C223AB70C4F3834303EB8303C4F38334BF
:102AB800FCEEE77A04EB430404F5FA64C5ED027A08
:102AC8006E712C80F8BDDFED036ABAE700E00040C4
:102AD8000024F4410000FA41402810B50C4608D003
:102AE800431EDBB21F2B09D8054A22FA03F3DB0782
:102AF80004D5FFF747FF0CB9024BD86110BD00BFE2
:102B08008B80008000E00040402808B508D0431EB4
:102B1800DBB21F2B0ED8084A22FA03F3DB0709D5CC
:102B2800FFF730FF054BDB6930EA03030CBF0120D8
:102B3800002008BD0020FCE78B80008000E00040FA
:102B480080280AD0402808D0431EDBB21F2B0DD89E
:102B5800074A22FA03F3DB0708D5012906D8054BF3
:102B68009A6A0CBF104322EA00009862704700BFBF
:102B78008B80008000E0004008B518B1FFF702FF25
:102B8800014B986108BD00BF00E0004083699B06C7
:102B9800FCD4016070474FF4E13303606023838005
:102BA800002383714FF4401383607047036B19B19E
:102BB80043F001030363704723F00103FAE70000C1
:102BC800036B23F0010370B50363C36A23F010039A
:102BD800C36200238363464B984204460D463ED1A8
:102BE800FFF7A6FBC00B0138022850D8414B53F819
:102BF80020002B68B0EB031F4FEA031175D36BB1AC
:102C0800B0FBF1F601FB1600C200B2FBF3F202F0D2
:102C1800010303EB52039BB243EA06431A0C03F089
:102C28003F036262A362E36A2A7923F060031343D5
:102C3800E362E36AAA7923F008031343E362EB7AB9
:102C48008BB3E36A43F01003E3626B79012B2ED058
:102C5800022B42D09BBBE36A23F002032EE0B0F1C3
:102C6800402F04D1FFF76AFBC0F34F30BBE7224B7C
:102C7800984204D1FFF768FBC0F3CF20B3E71F4B9E
:102C880098420ED1FFF766FBC0F34F20ABE7184B15
:102C98009C4202D0B4F1402F03D10220FFF7FAFA88
:102CA800A7E70320FAE7E36A23F01003CCE7E36A17
:102CB80043F00203E362E36A23F00403E362236B55
:102CC800AA7A23F0300313432363236B2A8923F45E
:102CD800404313432363002070BDE36A43F00203BB
:102CE800E362E36A43F00403E8E74FF0FF30F3E7F9
:102CF80000300040B05500080000014000100140BD
:102D0800FFF70CB910B501F0B9FA044601F04CFB15
:102D1800064B1B68011B201A03B910BD1A688A42AA
:102D28008CBF121800221A601B69F5E7680400209E
:102D3800054B1A680AB1002111721860012302615B
:102D48000372006801F04ABA680400200023C0E951
:102D58000033C0E9031303727047000070B50446DE
:102D680001F053FB64B11A4D29680B4663B96268D8
:102D78002260237261B901F017FB2046FFF7D8FFE4
:102D8800BDE8704001F043BB9C42F9D01B69EDE7F8
:102D980001F016FB22682B680244226019688A42F7
:102DA800064605D2FFF7AEFF2068801B2060E4E7E7
:102DB8001969186910B91C612061E1E70868824245
:102DC80002D90B460969F4E71C612161D8E700BF05
:102DD80068040020D0B5FFF795FF174A136814461A
:102DE8002BB11969DB68116003B9FEE798472368BE
:102DF80023B9FFF787FF23689BB9D0BD1E6801F090
:102E0800DFFA00278F4208BF864203D323681B6876
:102E1800002BEED123681A69DB682260002BE5D10C
:102E2800FEE71A7A002AE8D10122BDE8D0401868E6
:102E38001A7201F0D3B900BF6804002070B5164DAE
:102E4800044601F0E2FA2B6803B11CB9BDE87040F2
:102E580001F0DDBAA34215D1237A266983B16EB198
:102E6800002323722E60FFF74DFF2B68012218689C
:102E78001A7201F0B3F900232372E7E701F0F4F9BD
:102E88002E60F8E71A461B69002BF4D09C42F9D152
:102E980023691361EFE700BF6804002038B50446D2
:102EA8000D46FFF7CBFFC4E9005538BD08B501F062
:102EB800EBF9034AD2E90232C01842EB010108BD1E
:102EC8006804002038B504460D46FFF7EFFF001BE5
:102ED80061EB050138BD012070470000034B1B68FA
:102EE80013B15B6803B11847704700BF7C0400202A
:102EF800034B1B6813B1DB6803B11847704700BF69
:102F08007C040020002000F001BE000010B5134C26
:102F1800206000F029FF002000F0F8FD012000F0FB
:102F2800A2FE0021084601F09DF80421002000F0CF
:102F38006BFF0023194618461A4600F0E5FE0849BB
:102F48000848FFF703FF08490848FFF7FFFE08494C
:102F58000848FFF7FBFE0020207110BD7C0400200C
:102F6800E52E000810050020F92E00084C06002068
:102F7800FD3000082406002008B500F03FFDC31E00
:102F8800DBB2022B9ABFC0F10600C0B2002008BD18
:102F980000F0FEBE08B501F072F800B208BD07B532
:102FA8008DF807000DF1070000F055FD03B05DF83E
:102FB80004FB01F04DBB01F017BB000038B50C460F
:102FC800002340F201211A460546084600F09CFEFF
:102FD80000F014FF0B4B01280A480CBFDC731C726D
:102FE80000F0CCFF21462846002200F0BBFD064B2E
:102FF80006489968FFF752FFBDE838400348FFF7D5
:10300800ADBE00BFD40400207C04002010050020C1
:1030180008B54FF0040000F067FDBDE80840022045
:10302800FFF76EBE00F0DABD37B5184B93F838508D
:103038000F2805F10D05EDB222D8072822D803285C
:1030480022D8012894BF0024012400234FF4C07122
:103058001A46084600F058FE002300930A22294623
:10306800204600F0E1FF00F0D5FD09484FF4FA6171
:10307800FFF714FF064803B0BDE83040FFF76EBE07
:103088000424E2E70324E0E70224DEE7D404002076
:103098002406002010B50C462DED028B08EE102AF0
:1030A80000F076FE204601F02BFB00F0BFFDDFEDBF
:1030B8000A7A0A48B8EEC88A28EE278AFCEEC87A47
:1030C80017EE901AFFF7EAFEBDEC028B0348BDE845
:1030D8001040FFF743BE00BF00007A444C060020B2
:1030E80001F05EBA01F08CBA08B501F0CDF90330F1
:1030F80008BD000010B5002000F086FC044B1B68DA
:103108002BB19B691BB1BDE810400020184710BDCA
:103118007C04002010B590B10A4B012219461C68A6
:10312800A04206D39C68A04203D201EBC2021079E8
:1031380010BD0132162A03F10803F0D1FEE71F2063
:10314800F6E700BFC05500080128074804D1074B1F
:10315800C173197000F012BFC379012B03D1034B5F
:1031680001721970F6E77047D404002000000020AF
:10317800002340F2422110B51A460446084600F0E2
:10318800C3FD34B109482146FFF788FE0748FFF719
:10319800E5FD074B1A7B2AB16FF07F40BDE8104070
:1031A80000F0EABC18698001F8E700BF4C0600206F
:1031B8007C0400200023022110B51A460446084664
:1031C80000F0A2FD34B109482146FFF767FE074821
:1031D800FFF7C4FD064B1A7B2AB16FF07F40BDE8AC
:1031E800104000F0DFBC18698001F8E74C060020A9
:1031F8007C040020F7B5504C2379002B00F08A801E
:103208004E4D01F002F90023237101F000F92B88DB
:10321800D9070AD54A48FFF711FE012000F0F4FB50
:10322800236813B11B6803B198472B889A0731D5D7
:103238004448FFF703FE267B96B9012000F0E4FB23
:10324800314640F6021001F0CFF940F6441001F083
:10325800FFF940F00200C1B240F6441001F0C4F991
:10326800394E3A48FF220DF1070100F039FF304688
:1032780000F050FF23686BB19F685FB12B885B0635
:1032880008D496F90D3096F90C209DF807102F48B0
:103298001A44B8472B88580609D5237B13B901204F
:1032A80000F0B2FB236813B11B6903B198472B8860
:1032B80019060DD52648FFF7C1FD012000F0A4FB33
:1032C80023682BB19B691BB12888C0F3002098475D
:1032D8002B889A050ED500F091FB04281CD11848BC
:1032E800FFF7ACFD012000F08FFB236813B15B688A
:1032F80003B198472B889B060CD51248FFF79EFD13
:10330800237B13B9012000F07FFB236813B1DB682E
:1033180003B1984703B0F0BD00F070FB0528E9D170
:103328000848FFF78BFD012000F06EFB2368002B97
:10333800E0D0DB68DCE700BF7C040020D00400207C
:10334800100500204C060020380600202405002027
:10335800240600200D4B10B504461875587500F06A
:1033680017F85CB134214FF4E86001F03DF94421CD
:10337800BDE8104040F2417001F036B914214FF415
:10338800E86001F031F92421F2E700BF7C04002055
:1033980008B5012000F022FD054B187D5A7D8242B8
:1033A80004D05875BDE80840FFF7D4BF08BD00BF7A
:1033B8007C040020012808B506D0002000F00EFD8E
:1033C800034B00225A7508BDBDE80840FFF7E0BF6F
:1033D8007C040020F8B50D4617461C46FFF7EAFFA7
:1033E800284600F0D5FC0020FFF7C2FE0120FFF7B9
:1033F80087FCFFF75BFD0025064630460021FFF7F6
:1034080061FDA94208BFA04204D30124FFF700FED2
:103418002046F8BD00F033FE00B28742EDDA002402
:10342800F4E737B5FFF7B4FF002000F0A5FB002450
:1034380025460120FFF764FC00F021FE00F001039F
:10344800A3400134202C45EA0305F2D101F06EF9BE
:1034580028440190FFF7DCFD019803B030BD00005F
:103468000A2838B50DD8084B03EBC000D0E92C4525
:1034780001208840FCF79EFF22462B46FDF72EF9D7
:1034880038BD00240025F3E7C055000800000000FF
:103498002DE9F04F85B015469DF84C2000929DF817
:1034A8005C209DF84470DFF80092BDF8404089F830
:1034B8000C20002A18BF0024734ABDF83C80002F56
:1034C8000E469DF8481008BFFF21117082469346AA
:1034D80020B101286DD005B0BDE8F08FDFF8C0B18C
:1034E80000F0A9FB0B2330468BF834308BF828A06A
:1034F800CBF82C50FFF70EFE634A8BF8350041F6E7
:103508000403ABF8043013788BF80830009B8BF871
:1035180000A0002B14BFF223012387F001078BF8CA
:1035280009304FEAC80801238BF80A308BF8077076
:10353800ABF802808BF806A0FFF7E4FC9BF82800A4
:10354800003818BF0120FFF735FF0BF1280000F005
:10355800BBFC584600F012FD4C4A1068516802AB9B
:1035680003C302A800F077FA40F2FF1000F0A0FAB7
:103578002846FCF70FFF02460B4600204449FDF79A
:10358800ADF8444B0022FCF77FFF064620460F4665
:10359800FCF710FF02460B4630463946FCF774FF2D
:1035A8003D4B0022FCF770FFFDF730FAC9F8100018
:1035B80091E70020019300F03EFBE0B200F047FBEA
:1035C800364A374C019B84F828A032445FFA85F9C3
:1035D80092F8100184F8389084F8390084F83A3069
:1035E80096BB0B3D012D33D80123A9F10509994557
:1035F80084F83BA0237039D8B8F10B0F36D80C23C8
:10360800A3819BF80030E373009B23749DF8583026
:103618006374A773FFF7BCFE224800F055FC2048EE
:1036280000F0ACFC637C012B40F2367021D101F034
:103638000FF800F0FB0140F2367000F0D5FF1A4A8F
:103648004FF6FF73136146E7012E01D10C2DCBD045
:103658004946FFF705FF0AA3D3E90023FDF79AF9C6
:10366800B0F1000A18BF4FF0010ABDE7A4F80C80BA
:10367800C7E700F0EDFF40F00400C1B2DBE700BF90
:10368800000000A04761304000000020C856000834
:103698000000F03F0000204000408F40C055000867
:1036A800D4040020FC0400207C040020000000005A
:1036B8002DE9F74F0C9EBDF838709DF83C809DF8B9
:1036C80040A089469346054648B1012845D040F6B2
:1036D800890000F0BDFF40F00400C1B283E0544C03
:1036E8000B2284F82800184684F83420E662FFF795
:1036F80011FD41F60403BAF1000FA38014BFF223B1
:1037080001236372FF00012388F00108A37284F883
:103718003500C4F830B025706780A57184F807803B
:10372800FFF7F0FB94F82800003818BF0120FFF7D6
:1037380041FE04F1280000F0C7FB204600F01EFC03
:103748003C4A106851686B4603C3684600F083F929
:1037580040F2FF1000F0ACF9B9E7374A344C1A448C
:1037680084F828005FFA86FB92F810019DF834204F
:1037780084F838B084F8390084F83A20002B3FD117
:103788000B3E012E40D80123ABF1050B9B4584F875
:103798003B50237044D80B2F42D80C23A381274BCE
:1037A80084F80E801B78E3739DF84C30637484F8BA
:1037B80010A0FFF7A7FB94F82800003818BF0120D5
:1037C800FFF7F8FD1E4800F07FFB194800F0D6FB14
:1037D80094F83930062B7FF47AAF40F6890000F070
:1037E80037FF00F0FB0140F6890000F0FDFE484677
:1037F80000F086FF149A134B9A6003B0BDE8F08F6F
:10380800012B01D10C2EBED05946FFF729FE06A385
:10381800D3E90023FDF7BEF8051E18BF0125B2E75E
:10382800A781BCE7AFF30080000000A047613040EB
:10383800D4040020C8560008C05500080000002025
:10384800FC0400207C0400202DE9F74F884628B1AD
:1038580001283DD0002003B0BDE8F08F5A4A9FED03
:103868005B6A5179538803EBD10307EE903AD37919
:10387800F8EEE77A002B07EE108AF7EE006A08BF29
:10388800F0EE466A77EEA67AB8EEC77A537A77EE04
:10389800877A022BB0EE007A18BFB0EE467A77EE40
:1038A800877AB2EE007A67EE877A92ED0B7AB8EEF5
:1038B800477AC7EE876ADFED467A66EEA77A17EE93
:1038C800900AFCF789FD01F05FFDFDF79FF8C2E75C
:1038D800DFF8F4A09AF838B09AF839005946FFF79B
:1038E800BFFDBAF80C3007EE903AF8EEE77AB1EE81
:1038F800017A77EE877A04460D4617EE900AFCF7B0
:103908006BFD22462B46FCF7BFFD9AF80E300646A3
:10391800CBEB48089AF81000012B08F1070808EBD0
:1039280080080CBF14200020C0EB88000F46FCF76D
:1039380041FD9AF83B30002B804614BF022000203E
:10394800ABEB000080008946FCF734FD02460B46CD
:1039580040464946FCF7C2FE01F01EFC02469AF8B2
:103968003A0000F003000B460430CDE90023FCF7D1
:1039780021FDDDE90023FCF787FD002200238046B6
:103988008946FDF711F818B94FF000084FF0000903
:10399800104B002240464946FCF7C0FB22462B4606
:1039A800FCF772FD32463B46FCF7B8FB04A3D3E9AB
:1039B8000023FCF7B3FB01F06BFC86E7AFF3008054
:1039C800000000E0CEF7EF3FD40400200000000024
:1039D80000007A440000204008B5064B01221A7105
:1039E80000F0A7F9044B1880BDE808404FF6FF70B7
:1039F80000F0D0BB7C040020D0040020014B1878D4
:103A0800704700BF94040020014B1870704700BF36
:103A18009404002010B50C4C237813B12378062B9E
:103A280003D100F05FFD00F071FE2378052B05D16E
:103A380000F06CFEBDE8104000F048BD2378042B70
:103A4800F8D100F06BFEF5E7940400200A46014621
:103A5800002000F009BE08B501784FF4E86000F0D6
:103A6800C3FD002008BD000007B5074B5B7840BACE
:103A7800ADF804002BB9022201A940F2BC6000F0A5
:103A88008FFD03B05DF804FB9404002007B5074BD5
:103A98005B7840BAADF804002BB9022201A940F2C4
:103AA800BE6000F07DFD03B05DF804FB94040020C7
:103AB80010B50C4B5B7804469BB94FF4D76000F007
:103AC800C7FDC4F3002100F0FE0001434FF4D760A6
:103AD80000F08AFDE1B240F2B960BDE8104000F0A4
:103AE80083BD10BD9404002007B58DF8040000F0D4
:103AF80015FE012201A9842000F00CFD024B0022D2
:103B08001A7003B05DF804FB9404002007B5012285
:103B18008DF807000DF10701802000F0FBFC9DF8EF
:103B28000720044B22B901221A7003B05DF804FB88
:103B38000222F9E79404002007B5094B8DF8060026
:103B480004221A70030C8DF804300322030A01A919
:103B580083208DF8053000F0DDFC03B05DF804FB30
:103B68009404002010B51446FFF770FF2046BDE806
:103B78001040FFF7E1BF000007B5094B8DF80600BC
:103B880005221A70030C8DF804300322030A01A9D8
:103B980082208DF8053000F0BDFC03B05DF804FB11
:103BA8009404002013B50C4B04460522962140F6D8
:103BB800AC001A7000F018FD230C8DF804300322B5
:103BC800230A01A982208DF805308DF8064000F0FF
:103BD800A1FC02B010BD00BF9404002007B5030C7F
:103BE8008DF80030030A8DF801300B0C49BA8DF8B6
:103BF8000200ADF804100622694694208DF80330BF
:103C080000F088FC024B06221A7003B05DF804FB32
:103C180094040020002208B51146C52000F07AFC63
:103C2800014B07221A7008BD940400200022114697
:103C3800D12000F06FBC07B501228DF807000DF107
:103C480007019F2000F066FC03B05DF804FB07B590
:103C580001228DF807000DF10701A02000F05AFCA1
:103C680003B05DF804FB07B501228DF807000DF1DC
:103C78000701962000F04EFC03B05DF804FB00003D
:103C8800134B984207B50BD94EF6E113ADF8043043
:103C9800022201A9982000F03DFC03B05DF804FB66
:103CA8000C4B984202D94DF6D703EFE70A4B9842DE
:103CB80002D94CF2C153E9E7084B984202D948F2BD
:103CC8007513E3E7064B9842E2D946F66B73DDE7D6
:103CD80000E9A43580F8A9328044E52D000B6B1B60
:103CE80040FC541907B58DF8062004228DF804000D
:103CF8008DF8051095200DEB02018DF8073000F0C6
:103D080009FC03B05DF804FB07B552BAADF804200E
:103D180040BA082249BAADF80000ADF802105BBA03
:103D280069461046ADF8063000F0F4FB03B05DF8C4
:103D380004FB07B5022201A9122000F00DFC9DF832
:103D480004009DF8053043EA002003B05DF804FB49
:103D580007B501228DF807000DF107019D2000F03D
:103D6800D9FB03B05DF804FB08B500F05FFB00F079
:103D78008DFB00F0B7FB0020FFF7C8FE0120FFF71E
:103D8800E7FF024B01221A7008BD00BF940400200F
:103D980037B5114DAB7804461BB9FFF771FF012306
:103DA800AB702046FCF7F6FA09A3D3E90023FCF729
:103DB80095FCFCF72BFE042200BA01900DEB0201E2
:103DC800862000F0A7FB03B030BD00BFAFF3008032
:103DD800000000008084EE3F9404002007B5064BE5
:103DE8008DF80700587001220DF107018A2000F0B4
:103DF80091FB03B05DF804FB94040020014B587854
:103E0800704700BF9404002037B5044600200D46D3
:103E180000F079FC0128034620D10F2C02464FF010
:103E280000010CBF06200420FFF75CFF6FF00200C2
:103E38008442B8BF04460E2CA8BF0E24182140F6B1
:103E4800E70000F0D1FB022201A98E208DF8044082
:103E58008DF8055000F05EFB03B030BD40F6D80089
:103E680000F0F6FB40F01E00C1B240F6D80000F0AA
:103E7800BBFB134B1878022818D0032806D001285A
:103E880018D1034600220521032003E00221012363
:103E980000220846FFF726FF6FF002008442B8BFF1
:103EA8000446162CA8BF16243821C8E7012300228F
:103EB8000321EFE70123002207210420EAE700BFDE
:103EC800A50400200000000013B5294A04465168E3
:103ED80010686B4603C3274B20785B78834201D078
:103EE800FFF77CFF23781BB1012B35D002B010BD42
:103EF8006068FCF74FFA02460B4619A1D1E90001A8
:103F0800FCF7ECFB00221C4BFCF7BEFAFCF77EFD2D
:103F1800030C8DF80030030A8DF80130237B8DF8EF
:103F280002008DF80330A068637B8DF80430FCF73D
:103F380031FA0DA3D3E90023FCF7D0FBFCF766FDAB
:103F4800030C40BA8DF80530ADF806000822694622
:103F58008B2000F0DFFAC9E7236900930422F6E713
:103F68000000000080847E41000000008084EE3F55
:103F78004C57000894040020000040401FB5284A10
:103F8800044651681068127A01AB03C31A70254BB6
:103F980020785B78834201D0FFF720FF23781BB19C
:103FA800012B31D004B010BD637AF12B20D14FF62C
:103FB800FF70FFF759FD48F20500FFF767FD022380
:103FC8006288A188ADF8061052BAE188ADF80420DD
:103FD8008DF80B30227AA37A8DF80A20ADF80810F4
:103FE8008DF80C30092201A98C2000F093FAD9E74A
:103FF800F22BE5D141F60F50FFF736FD41F22100D3
:10400800FFF744FD0623DBE7A3895BBAADF804306C
:10401800E389ADF80630238AADF808300622E2E7D6
:10402800545700089404002013B5049C8DF80330FD
:10403800230C8DF800008DF801108DF802208DF802
:1040480004300522230A694688208DF805308DF84A
:10405800064000F05FFA024B07221A7002B010BD4A
:104068009404002007B502228DF804008DF805108D
:104078008F2001A900F04EFA03B05DF804FB07B5E4
:10408800012201A9152000F067FA9DF804004042BA
:10409800401003B05DF804FB37B504460D46022214
:1040A80001A9132000F058FA0C4B5B78012B11D1B1
:1040B80040F2047000F0CCFAC0F3C710012809D10F
:1040C80040F2027000F0C4FA20709DF805302B70A1
:1040D80003B030BD9DF804302370F6E79404002047
:1040E800F7B50D46064600240DF107012846174688
:1040F8008DF80740FFF7D0FF2A78BA4207D89DF815
:104108000700314600F0D4FA204603B0F0BD012084
:10411800FBE7000013B50322044601A9142000F0B0
:104128001BFA1B4A5178217049B1012917D0142272
:104138000021204600F06EFF0F2323700DE09DF84C
:10414800043023719DF80530A1605B425B10A371B8
:104158009DF806305B425B10637102B010BD9DF89C
:1041680004309DF905105B425B1023739DF8053000
:104178000029B6BFA3F580739B089B1063739DF855
:1041880006305B425B10A37353682361E5E700BF09
:104198009404002007B5022240BAADF8040001A932
:1041A800104600F0B7F903B05DF804FB10B5094CF0
:1041B80023786BB9FEF7D7FB01210320FEF7D6F869
:1041C8000120FEF7E9FB044B02221A600123237049
:1041D80010BD00BF9C04002000E100E070B5052878
:1041E80086B038BF052003AC05462046FEF706FC1E
:1041F80094E807001A4C6B4683E8070084E8070038
:104208000020FEF7D9FBFEF7ABF80228284614BFBA
:104218004FF400464FF4FA46FCF7BCF80446304623
:104228000D46FCF7B7F802460B4620462946FCF730
:104238002BF90C4B0022FCF751FA01F035F9FCF789
:104248001DFCFEF799FC0120FEF7C6FB0120FEF7D6
:10425800B3FB01211020FEF773FC06B070BD00BF50
:104268006006002000408F4008B50020FEF7A4FB40
:10427800BDE8084000211020FEF762BC014BD3E9DD
:1042880000017047700600202DE9F04F89B005A89D
:10429800FEF7B4FB9DF81830BDF814109DF8170010
:1042A8009DF819C09DF81AE03B4F00261A460025D4
:1042B8009DF81B3003930024CDE90056079B374E29
:1042C8000293A1F5FA68A246A34625B245451FFA0E
:1042D80084F917DB11F0030100F1FF3059D0304D9C
:1042E800304E0024E1B2814204F101042BDA294462
:1042F800DDE90078097B71437F1848F10008CDE9B2
:104308000078EFE7009B15B119F0030F07D19B194F
:104318000093019B43EB0A0301930134D5E7DB19B2
:104328000093019B43EB0B03F6E7DDE900782C5D76
:1043380074433F1948F10008CDE90078CCB28442B3
:1043480001F10101F1DB3C24AEFB04454FF461614E
:10435800E1FB0C45039B1349501EE41801FB00F1D7
:10436800009B45F100056418019945F100054FF4DB
:104378007A70E21845EB0101A2FB002300FB013330
:104388000299B1FBF0F0101843F1000109B0BDE843
:10439800F08F034D034ED1E78033E1010085E20140
:1043A8005D5700088051010038B5FFF76DFF034BDA
:1043B80004460D46C3E9004538BD00BF700600201D
:1043C80008B5FFF761FF034AD2E90032C01A61EB72
:1043D800020108BD7006002008B51020FEF794FB06
:1043E80090B10020FEF7E8FA00211020FEF7A8FBA4
:1043F80000211020FEF770FBFEF7ECFCBDE808403A
:1044080001211020FEF79CBB08BD72B6704762B64A
:1044180070470000044B9860DA6802F01102012A24
:10442800FAD19868C0B270470090004010B5134C9C
:104438004FF40073C4F8003107232360022323617B
:10444800D4F80431802B0BD01420FDF74FFD002346
:10445800C4F80C311420FDF749FD0123C4F80C31D0
:10446800064B074802225A60064B4FF400121A60A6
:10447800BDE8104003220B21FDF7EABD0090004083
:1044880000FC014000E100E0052070470E4BD3F826
:10449800042142F02002C3F80421D3F8042122F0B9
:1044A8008002C3F80421D3F8002142F02002C3F8A7
:1044B8000021D3F8042142F00102C3F80421D3F803
:1044C8000821D205FBD470470090004008B50A20A7
:1044D800FDF70CFD024AD2F80831DB05FBD408BD14
:1044E8000090004038B572B6094C0025C4F80C514C
:1044F8000A20FDF7FBFCC020FFF78CFF2846FFF7DA
:1045080089FF0123C4F80C31FFF7E0FF62B638BD1C
:1045180000900040F8B50F4F0C4615460646FFF7C9
:1045280079FA0023C7F80C313046FFF773FF2544AA
:10453800AC4208D10123842EC7F80C3108D0BDE85D
:10454800F840FFF7C3BF14F8010BFFF763FFEFE76D
:10455800F8BD00BF0090004073B5104E019015469D
:104568000C46FFF757FA0021C6F80C110198FFF71F
:1045780051FF0846FFF74EFF2544AC4207D10123FF
:10458800C6F80C3102B0BDE87040FFF79FBF0020AD
:10459800FFF740FF04F8010BEFE700BF0090004071
:1045A800F8B5104E0C4615460746FFF733FA0023B8
:1045B800C6F80C310D20FFF72DFF380AFFF72AFF48
:1045C800F8B2FFF727FF2544AC4206D10123C6F80D
:1045D8000C31BDE8F840FFF779BF14F8010BFFF77D
:1045E80019FFF1E70090004007B501228DF8071088
:1045F8000DF10701FFF7D4FF03B05DF804FB0000DD
:10460800F8B5124E154607460C46FFF703FA002187
:10461800C6F80C111D20FFF7FDFE380AFFF7FAFE59
:10462800F8B2FFF7F7FE0846FFF7F4FE2544AC4260
:1046380006D10123C6F80C31BDE8F840FFF746BFA4
:104648000020FFF7E7FE04F8010BF0E700900040B8
:1046580007B501220DF10701FFF7D2FF9DF807000A
:1046680003B05DF804FB0000F8B5154607460E4692
:10467800FFF7D0F90D4B0024C3F80C410E20FFF7CB
:10468800C9FE3846FFF7C6FEADB2A3B29D4207D8B1
:10469800064B0122C3F80C21BDE8F840FFF716BF0E
:1046A800305DFFF7B7FE0134EFE700BF0090004030
:1046B800F8B515460E460746FFF7ACF90F4B002430
:1046C800C3F80C411E20FFF7A5FE3846FFF7A2FEEF
:1046D8002046FFF79FFEADB2A3B29D4207D8074B15
:1046E8000122C3F80C21BDE8F840FFF7EFBE002017
:1046F800FFF790FE30550134EEE700BF0090004010
:104708000221FFF781BB0220704700000248032204
:104718000A21FDF709BC00BF00F00140024804224D
:104728000A21FDF701BC00BF00F00140074B084912
:10473800186843F2390201FB002018606FF000434B
:10474800B0FBF3F3C3EBC373C01A70470400002037
:104758006D4EC6411FB50D480D4C01220021FDF7D5
:1047680077FC012211460948FDF772FC01A8FEF703
:1047780012FA4FF4E13301A920460193FEF720FA1B
:1047880001212046FEF712FA04B010BD00F40140E2
:104798000030004008B501210220FEF741F8012150
:1047A8001F20FDF7E3FD01210D20FDF7DFFD0121AD
:1047B8002020FDF7DBFD01212120FDF7D7FD012198
:1047C8002220FDF7D3FD01214120FDF7CFFD012176
:1047D8000320FDF7CBFD01210020FDF7C7FD0121D6
:1047E8000E20FDF7C3FD6420FDF798FB0120FDF7BF
:1047F80045FDFFF7AFFFBDE80840FFF7D7BC08B598
:10480800FFF7C8FF00F04AF9002008BD08B5034BC0
:10481800DB6A9847024B04221A7008BDDC56000870
:10482800A804002008B5034BDB6A9847024B052211
:104838001A7008BDDC560008A804002008B5034B10
:10484800DB6A9847024B03221A7008BDDC56000841
:10485800A8040020F8B51D46094BDB6A0C4607463C
:1048680016469847074B08481C8039462246FCF7ED
:1048780085FA064901234E708D700B70F8BD00BF94
:10488800DC56000808000020AC060020A804002020
:1048980038B5084C0848094DFDF796FAE2781AB978
:1048A8006B6B4FF4E1609847EB6A984702232370DB
:1048B80038BD00BFA80400208E570008DC56000849
:1048C8002DE9F0432048214E8BB0FDF77DFA2048B2
:1048D800204B4360204BC360204B8360204B036117
:1048E800204B4361336804309847F3681E48984763
:1048F800002401254FF008094FF0070840F6B833A7
:10490800CDE90743F769CDF80080234622462846BB
:10491800CDE90544CDE90345CDE901590E21B84754
:10492800CDE90845CDE90644CDE90445CDE9024481
:10493800CDE90049B6692B46424621462846B0478C
:104948000BB0BDE8F08300BF9C570008DC56000898
:10495800A8040020154800085D4800082D480008F4
:10496800994800084548000880A1031C70B5E32059
:1049780000F0A2F9194C2060E52000F09DF994EDB3
:10498800007ADFED176A174B606007EE900A27EE92
:10499800267A67EEA67ABDEEC77AFDEEE77A142589
:1049A80017EE101A17EE902A25720124AA209C707F
:1049B8001C71032418700A2600209C711972C1F317
:1049C80007249A72C2F30721BB225870DE7058710F
:1049D800DC715972D8721D735A7370BD7806002045
:1049E8000000C8428406002070B5264C264D0026DB
:1049F800AB6AE670C9B2984726702378042B2AD18F
:104A08002248FDF7E1F9002323704FF4E1606B6B56
:104A1800984740F2E9362378012B02D0013EB6B21E
:104A2800E6B92378012BDEB21ED1194B1A78AA2ACF
:104A380023D15A7BBB2A20D159799A79FF2313FBBA
:104A48000123032B4FF0000519D11248FDF7BCF9DB
:104A58002570304670BD6B6E9847CEE70120FEF793
:104A68004FF96B6E9847D6E721780B48FDF7ACF9FC
:104A780001230020E3702070ECE70020EAE72846D5
:104A8800E8E700BFA8040020DC560008A957000882
:104A9800AC060020B6570008C65700082DE9F347B2
:104AA80000F0B2F8FFF70CFF00F094F9434D444EC4
:104AB800444F002201A9284600F022FA002857D0C6
:104AC800DFF8F880DFF818A1C14600240199A14257
:104AD80023DC3D48FDF778F90A20FEF711F9019922
:104AE8002846FFF781FF044648B33848384CDFF8BA
:104AF800F480FDF769F9012201A9284600F000FABF
:104B080088B30A20FEF7FCF801992846FFF76CFFE6
:104B180058B14046FDF758F9EDE7214619F8012B41
:104B28005046FDF751F90134D0E72046FDF74CF91E
:104B3800FFF71CFF0199284600F05CF9DBE72548E0
:104B4800DFF8A490FDF740F9FFF710FF214618F8A9
:104B5800012B48460134FDF737F90E2CF6D12146D2
:104B6800284600F047F942F21070FEF7C9F8A0E7AE
:104B78003046FDF729F9FFF7F9FE3846FDF724F925
:104B88000E212846FFF730FF18B11348FDF71CF92E
:104B9800E9E7DFF82880DFF850900446214618F846
:104BA800012B48460134FDF70FF90E2CF6D12846A3
:104BB800214600F01FF90948E8E700BF84060020F5
:104BC800F95800081059000856580008705800088D
:104BD800A1580008C85800081A5900083859000890
:104BE8004558000889580008EB5800087047FEE748
:104BF800FEE7FEE7FEE77047704770477047FEF72D
:104C0800EBBEFFF7E9BB000010B5124C2046FDF7DC
:104C18003FFA01211620FDF7A9FB01210D20FDF720
:104C2800A5FB0D4803220E21FDF712FA03220A48BC
:104C38000F21FDF70DFA09490846FDF747FA204606
:104C48000649FDF747FA20460121BDE81040FDF767
:104C580091BA00BF0070004000F00140BC0600207F
:104C680010B501440023884203D1981A18BF0120C7
:104C780010BD10F8014B6340082413F0800F04F1B5
:104C8800FF344FEA430318BF83F0310314F0FF04E5
:104C9800DBB2F2D1E7E7000010B50648054C132156
:104CA800FDF7D2FA13212046FDF7D4FA0128F9D1ED
:104CB80010BD00BF00700040F0B5002285B0402153
:104CC80005463E483D4CFDF766FAFFF7E5FF3B48D1
:104CD8002946FDF785FAFFF7DFFF38480122402112
:104CE800FDF759FAFFF7D8FF34480121FDF790FA8C
:104CF80014212046FDF7AEFA01280746F8D1142101
:104D08002E482E4CFDF7A0FA2C48FDF77AFA3946C2
:104D18008DF80C0006462948FDF77AFA142120463A
:104D2800FDF798FA0128F9D114212448234FFDF7FB
:104D38008BFA2248FDF765FA00218DF80D0004462C
:104D48001E48FDF765FA14213846FDF783FA012855
:104D5800F9D114211948FDF777FA1848FDF751FAE7
:104D680001901648FDF733FA019A022103A8FFF7CC
:104D780077FF00BB04EB062407EE904AE32DF8EE1C
:104D8800E77A0CBFDFED0E6ADFED0E6A9FED0E6A63
:104D98000BBF67EEA67A67EEA67ADFED0C6AF9EE2E
:104DA800086AE7EE866AB2EE047A66EE877A17EE4C
:104DB800900A05B0F0BDDFED067AF8E70070004014
:104DC80052B82F430000FA420000803766663BC2A3
:104DD80000FF7F47034A044B1360044A1360044AE8
:104DE8001A607047E8190020C8160020C416002071
:104DF800C40600202DE9F041384DDFF800810E4649
:104E0800D8F800202968531ADB10074634480C6884
:104E1800FCF7DAFFD8F800302A68991A002933DD40
:104E280029463048FCF7D0FFD8F804301B1BB342A2
:104E3800214614DB2C48FCF7C7FF0023B3420ADBEA
:104E48002B68002EA8BFA41903F108025C602A6031
:104E58009C60BDE8F081FA5CE2540133EEE7234838
:104E6800FCF7B2FF0023B3420ADB2B68002EA8BF71
:104E7800A41903F108025C602A601D4A9A60E8E7F9
:104E8800FA5CE2540133EEE79342E2D11A4629462E
:104E98001848FCF799FFD8F804301B1BB342214689
:104EA80012DB1148FCF790FF0023B34208DB2B68A4
:104EB800002EA8BFA4195C600F4B2B601C60C8E7CC
:104EC800FA5CE2540133F0E70848FCF77DFF002361
:104ED800B342CADAFA5CE2540133F9E7E819002070
:104EE800585900087059000893590008B15900082A
:104EF800C4060020CC590008C81600200C00002069
:104F08002DE9F047DFF8BC90DFF8BCA0D9F80030F5
:104F180007461E680D461446C84692B3DAF80020C4
:104F280093423AD0234A1268D11A002913DD5968EE
:104F38002148891B2960FCF747FF00232A689A4209
:104F480005DCD8F800300833C8F8003006E0F25C19
:104F5800FA540133F2E7934203D001242046BDE816
:104F6800F08759681448891B2960FCF72DFF002336
:104F78002A689A4201DC114BE6E7F25CFA540133E5
:104F8800F6E759680C48891B2960FCF71DFFDAF819
:104F98000020D9F800309A4207D10948FCF714FFDD
:104FA8000024DBE7335D3B5501342B68A342F9DC71
:104FB800D3E700BF0C000020EC590008C8160020F9
:104FC800F5590008C4160020E819002070B50D4EE8
:104FD8000D4D761BB61006D0002455F8043B01345D
:104FE8009847A642F9D1094E094D761B00F0A6FA5A
:104FF800B61006D0002455F8043B01349847A64261
:10500800F9D170BD205A0008205A0008285A000813
:10501800205A0008F0B4860746D0541E002A3CD017
:10502800CAB2034601E0013C37D303F8012B9D07C0
:10503800F9D1032C2AD9CDB245EA05250F2C45EA2A
:10504800054534D9A4F1100222F00F0C03F1200712
:105058001609674403F1100242E9045542E9025572
:105068001032BA42F8D1721C14F00C0F03EB021282
:1050780004F00F0613D0331F23F003030433134443
:1050880042F8045B9342FBD106F003042CB1CAB288
:105098001C4403F8012B9C42FBD1F0BC70473446FA
:1050A8001346002CF3D1F8E714460346C1E71A4625
:1050B8002646E0E7024B13B1024800F005B87047F6
:1050C80000000000DD500008002301461A4618467B
:1050D80000F01AB838B5084B084D5B1B9C1007D078
:1050E800043B1D44013C55F804399847002CF9D17C
:1050F800BDE8384000F028BA2C5A0008285A0008A1
:10510800704700BF704700BF2DE9F047DFF880A067
:105118000646DAF8000098460F469146FFF7F0FF7A
:105128001A4B1B68D3F8484124B365681F2D26DC49
:105138005EB9AB1C0135DAF80000656044F82370ED
:10514800FFF7E0FF0020BDE8F08704EB85030121AD
:10515800C3F88890D4F88821A9400A43022EC4F8DD
:105168008821C3F80881E4D1D4F88C311943C4F8F4
:105178008C11DEE703F5A674C3F84841D5E7DAF8E1
:105188000000FFF7BFFF4FF0FF30DCE7005A0008D0
:105198004004002000000000F8B5C1F30A57A7F248
:1051A800FF35132D0B460C460246064632DC002D11
:1051B8001EDB354F2F4101EA070C5CEA000C14D0C6
:1051C8002FA3D3E90023FAF7A9FF00220023FBF756
:1051D800EBFB40B1002C03DD4FF480132B411C4442
:1051E80024EA070400263246234610461946F8BD2D
:1051F80023A3D3E90023FAF791FF00220023FBF74A
:10520800D3FB0028EFD0002C34DB26432ED01F4CD4
:105218000026E8E7332D07DDB5F5806FE5D1FAF70D
:105228007DFF02460B46E0E7A7F213474FF0FF3C2D
:105238002CFA07F70742D8D011A3D3E90023FAF7CD
:105248006DFF00220023FBF7AFFB0028CBD0002C1A
:1052580009DD142D0CD00122C5F1340302FA03F341
:105268009E1928BFA41826EA0706BCE73446BAE701
:105278000134F8E700264FF00044B4E7AFF30080AC
:105288009C7500883CE4377EFFFF0F000000F03F6C
:10529800F8B5C1F30A57A7F2FF35132D0B460C4694
:1052A8000246064620DC002D40DB354F2F4101EA3F
:1052B800070C5CEA000C14D02FA3D3E90023FAF7FB
:1052C8002DFF00220023FBF76FFB40B1002C03DA0F
:1052D8004FF480132B411C4424EA0704002632466D
:1052E800234610461946F8BD332D07DDB5F5806F06
:1052F800F7D1FAF713FF02460B46F2E7A7F2134776
:105308004FF0FF3C2CFA07F70742EAD01AA3D3E97B
:105318000023FAF703FF00220023FBF745FB0028D0
:10532800DDD0002C1BDB26EA0706D8E712A3D3E959
:105338000023FAF7F3FE00220023FBF735FB0028D1
:10534800CDD0002C02DB00263446C8E724F0004309
:105358000C4A1E43002E18BF14460026BFE7142D22
:1053680008D00122C5F1340302FA03F39E1928BFBD
:10537800A418D8E70134D6E79C7500883CE4377E4A
:10538800FFFF0F000000F0BF2DE9F043C1F30A5CF6
:10539800ACF2FF36132E83B002460B460D464FEA99
:1053A800D174074631DC002E4FDB3D49314103EA19
:1053B800010010432ED003EA510352EA03074FEAD3
:1053C80051010CD04FF48023132E25EA010143FA32
:1053D80006F545EA01050CBF4FF0004700273149A3
:1053E80001EBC4042B46D4E900453A462046294639
:1053F800FAF794FECDE90001DDE9000122462B46CB
:10540800FAF78AFE03B0BDE8F083332E07DDB6F560
:10541800806F42D01046194603B0BDE8F083ACF265
:10542800134C4FF0FF3121FA0CF10842F2D010EA88
:1054380051024FEA5103D2D04FF0804220EA0307CD
:1054480042FA0CFC47EA0C07C9E721F00041014386
:10545800E0D0C3F31301014312484F420F4300EB5E
:10546800C401D1E900895D0C3F0B6D0407F40027E6
:1054780047EA050340464946FAF750FECDE90001E0
:10548800DDE9000142464B46FAF746FE21F00045A9
:1054980045EAC47103B0BDE8F083FAF73FFEBBE705
:1054A800FFFF0F00085A00082DE9F048C1F30A571A
:1054B800A7F2FF34132C0B460D4602460FDC002CD6
:1054C8002ADB1D49214103EA010010432FD04FF484
:1054D800002323411D4425EA0105002325E0332C40
:1054E80007DDB4F5806F22D1FAF718FE02460B46A5
:1054F8001DE0A7F213474FF0FF3121FA07F73842B2
:1055080015D00122C4F1330302FA03F3C31828BFEC
:10551800AD1823EA070308E001F00045013404BF91
:1055280045F07F5545F4401500231A462B46104692
:105538001946BDE8F08800BFFFFF0F00F8B500BFAF
:10554800F8BC08BC9E467047F8B500BFF8BC08BC5C
:045558009E467047B4
:10556000000000000000F03F0000000000002440A8
:1055700000000000000059400000000000408F4083
:10558000000000000088C34000000000006AF840EE
:105590000000000080842E4100000000D012634112
:1055A0000000000084D797410000000065CDCD4188
:1055B00000093D000080000000366E010000000080
:1055C000C01200001F000000A81600001700000015
:1055D000841C00000F000000E42500001E000000F5
:1055E000B42D000016000000083900000E00000075
:1055F0002C4C00001D000000685B0000150000003E
:10560000747200000D000000589800001C0000009B
:1056100034B7000014000000E8E400000C000000B3
:10562000783101001B000000686E010013000000CB
:1056300034CA01000B000000286202001A000000BA
:1056400040DB0200120000003C9303000A0000004F
:10565000C0C204001900000060B305001100000082
:10566000382007000900000020A10700000000000A
:10567000000000A0703D1F40000000608F422F40DE
:105680000000000000403F400000000000404F408C
:105690000000000000405F400000000000406F403C
:1056A0000000000000407F400000000000000000FB
:1056B000000000400AD72440000000E07AD43440C3
:1056C00000000080C2D54440C194C1000000000029
:1056D000040506030A02090108000000152F00084E
:1056E000812F0008BD330008992F0008DD33000822
:1056F0002B34000899340008B9360008DF2E000862
:1057000051380008C52F0008193000080D2F000877
:1057100079310008313000089D3000089D2F0008C5
:10572000BF2F0008BB2F0008E9300008ED3000084B
:10573000A72F0008513100085D330008F130000840
:10574000FD310008BD3100082D30000800000000C8
:10575000000000000000000000000000001F1D1FEE
:105760001E1F1E1F1F1E1F1E1F1F1C1F1E1F1E1F52
:105770001F1E1F1E1F666E6900666E692B006E611C
:105780006E00666E692D00286E756C6C29004F6E78
:10579000527854696D656F75740D0A006E6F64659B
:1057A00020696E6974210D0A0073656E64206F763E
:1057B0006572210D0A007265636569766564206F04
:1057C0006B21210D0A006565656565656565656523
:1057D0006565656565656565656565656565656579
:1057E0006565656565656565656565656565656569
:1057F0006565656565656565656565656565656559
:105800006565656565656565656565656565656548
:105810006565656565656565656565656565656538
:105820006565656565656565656565656565656528
:105830006565656565656565652C73746174653D51
:1058400025640D0A0073656E646275665B25645D90
:105850003D25640D0A006C656E3D25642C796F75DD
:10586000206C6F756661212121313131310D0A00C3
:105870006C6F7566612073656E64206F6B323232B7
:105880003232323232320D0A006C6F75666120732B
:10589000656E64206F6B33333333333333330D0A28
:1058A000006C6F7566612073656E64206661696C5B
:1058B000212120736176652064617461343434344D
:1058C00034343434340D0A006C6F756661207365AE
:1058D0006E64206661696C212120736176652064A5
:1058E00061746135353535350D0A0073656E645B5D
:1058F00025645D3D25640D0A007A6366736F6E67EB
:10590000206F6B213636363636363636363636002A
:10591000616161616161610D0A006661736F6E674B
:105920002077616E63656E67206F6B373737373767
:1059300037373737373721006661736F6E672073EB
:105940006869626169206661696C20383838383866
:1059500038383838383821002A494E3D25702C2AED
:10596000454E443D25702C452D493D25640D0A00CA
:105970004D4D4D4D4D4D2068617665206120737011
:105980006163652126494E3D25702C494E3D2570A9
:105990000D0A0042554620686176652061207370CB
:1059A00061636521494E2D3E5354413D25700D0ADA
:1059B00000425546206E6F74207370616365214903
:1059C0004E2D3E5354413D25700D0A004D4D4D4D19
:1059D0004D4D206E6F742073706163652126494EB2
:1059E0003D25702C494E3D25700D0A006C656E3DBD
:1059F00025640D0A006E6F2064617461210D0A0038
:105A000018000020000000000000000000003043EB
:085A100000000000000030C39B
:085A1800A8B0FF7F01000000AF
:085A2000BD500008FD00000864
:045A2800D900000899
:105A2C00FF000000010000000E00E803E019002058
:105A3C00C31600200000000000000000040300203A
:105A4C006C030020D40300200000000000000000C4
:105A5C00000000000000000000000000000000003A
:105A6C00000000000000000000000000000000002A
:105A7C00000000000000000000000000000000001A
:105A8C00000000000000000000000000000000000A
:105A9C0000000000000000000000000000000000FA
:105AAC0000000000000000000000000000000000EA
:105ABC0000000000000000000000000000000000DA
